:020000040800F2
:100000000000032025130008050F00080B0F00084F
:10001000110F0008170F00081D0F00080000000056
:10002000000000000000000000000000E15800088F
:10003000230F000800000000315B0008B5370008FE
:100040007513000875130008751300087513000870
:100050007513000875130008751300087513000860
:100060007513000875130008751300087513000850
:100070007513000875130008751300087513000840
:100080007513000875130008751300087513000830
:100090007513000875130008751300087513000820
:1000A0007513000875130008751300087513000810
:1000B0007513000875130008751300087513000800
:1000C00075130008751300087513000875130008F0
:1000D00075130008751300087513000875130008E0
:1000E00075130008751300087513000875130008D0
:1000F00075130008751300087513000875130008C0
:1001000075130008751300087513000875130008AF
:100110007513000875130008310F000875130008E7
:10012000751300087513000875130008751300088F
:10013000751300087513000875130008751300087F
:10014000751300087513000875130008751300086F
:10015000751300087513000875130008751300085F
:10016000751300087513000875130008751300084F
:1001700075130008751300087513000800000000CF
:10018000751300087513000875130008751300082F
:10019000751300087513000875130008751300081F
:0C01A000751300087513000875130008A3
:1001B00010B5054C237833B9044B13B10448AFF3A1
:1001C00000800123237010BD980000200000000073
:1001D0005460000808B5034B1BB103490348AFF353
:1001E000008008BD000000009C0000205460000852
:1001F000034613F8012B002AFBD1181A0138704767
:1002000053B94AB9002908BF00281CBF4FF0FF317D
:100210004FF0FF3000F074B9ADF1080C6DE904CE79
:1002200000F006F8DDF804E0DDE9022304B07047D1
:100230002DE9F047089D04468E46002B4DD18A4299
:10024000944669D9B2FA82F252B101FA02F3C2F1CC
:10025000200120FA01F10CFA02FC41EA030E94405D
:100260004FEA1C48210CBEFBF8F61FFA8CF708FB7E
:1002700016E341EA034306FB07F199420AD91CEB56
:10028000030306F1FF3080F01F81994240F21C8188
:10029000023E63445B1AA4B2B3FBF8F008FB1033D0
:1002A00044EA034400FB07F7A7420AD91CEB040405
:1002B00000F1FF3380F00A81A74240F207816444D5
:1002C000023840EA0640E41B00261DB1D44000235A
:1002D000C5E900433146BDE8F0878B4209D9002DBE
:1002E00000F0EF800026C5E9000130463146BDE848
:1002F000F087B3FA83F6002E4AD18B4202D38242B2
:1003000000F2F980841A61EB030301209E46002D60
:10031000E0D0C5E9004EDDE702B9FFDEB2FA82F2B5
:10032000002A40F09280A1EB0C014FEA1C471FFA13
:100330008CFE0126200CB1FBF7F307FB131140EAFA
:1003400001410EFB03F0884208D91CEB010103F1C7
:10035000FF3802D2884200F2CB804346091AA4B289
:10036000B1FBF7F007FB101144EA01440EFB00FE5D
:10037000A64508D91CEB040400F1FF3102D2A645C2
:1003800000F2BB800846A4EB0E0440EA03409CE761
:10039000C6F12007B34022FA07FC4CEA030C20FA0E
:1003A00007F401FA06F31C43F9404FEA1C4900FA2E
:1003B00006F3B1FBF9F8200C1FFA8CFE09FB1811AB
:1003C00040EA014108FB0EF0884202FA06F20BD91E
:1003D0001CEB010108F1FF3A80F08880884240F26E
:1003E0008580A8F102086144091AA4B2B1FBF9F0B2
:1003F00009FB101144EA014100FB0EFE8E4508D9AD
:100400001CEB010100F1FF346CD28E456AD9023831
:10041000614440EA0840A0FB0294A1EB0E01A14216
:10042000C846A64656D353D05DB1B3EB080261EB84
:100430000E0101FA07F722FA06F3F1401F43C5E95E
:10044000007100263146BDE8F087C2F12003D84094
:100450000CFA02FC21FA03F3914001434FEA1C47D6
:100460001FFA8CFEB3FBF7F007FB10360B0C43EAC8
:10047000064300FB0EF69E4204FA02F408D91CEB78
:10048000030300F1FF382FD29E422DD90238634476
:100490009B1B89B2B3FBF7F607FB163341EA034116
:1004A00006FB0EF38B4208D91CEB010106F1FF3865
:1004B00016D28B4214D9023E6144C91A46EA00465C
:1004C00038E72E46284605E70646E3E61846F8E6EE
:1004D0004B45A9D2B9EB020864EB0C0E0138A3E737
:1004E0004646EAE7204694E74046D1E7D0467BE718
:1004F000023B614432E7304609E76444023842E790
:10050000704700BF80B483B000AF03463960FB7111
:1005100097F90730002B0ADB3B68DAB20C4997F9F0
:1005200007301201D2B20B4483F800230AE03B6883
:10053000DAB20849FB7903F00F03043B1201D2B28F
:100540000B441A7600BF0C37BD465DF8047B70473C
:1005500000E100E000ED00E080B584B000AF0346AC
:100560003960FB7100F072FFF8600AE03B68002B15
:1005700007D000F06BFF0246FB68D31A3A689A4234
:1005800006D90A4B1B6803F08003002BEED000E075
:1005900000BF064B1B6803F08003002B02D0034A08
:1005A000FB79536000BF1037BD4680BD005000404E
:1005B00080B483B000AF7860094B1B6803F0200360
:1005C000002B06D0064B5B68DAB27B681A700123F9
:1005D00000E0002318460C37BD465DF8047B7047E9
:1005E0000050004080B586B000AFF860B9607A6016
:1005F00000237B610AE0FA687B6913441B78796801
:100600001846FFF7A9FF7B6901337B617A69BB68F4
:100610009A42F0D300BF00BF1837BD4680BD00002E
:1006200080B500AF0C4B1B680C4AA2FB03239B094F
:100630000B4A013B536000214FF0FF30FFF762FF90
:10064000074B00229A60064B07221A60054B0022D6
:100650001A6000BF80BD00BF24000020D34D62108F
:1006600010E000E0B400002080B500AF00F0EEFE26
:100670000346184680BD80B582B000AF786039600F
:1006800000F0E4FE02467B68D31A3A689A4234BF0F
:1006900001230023DBB218460837BD4680BD0000A9
:1006A00080B582B000AF204B7B60204B1B6A1F4A95
:1006B00043F4801313621D4B1B6A1C4A23F48013FE
:1006C00013621A4B5B6A194A43F400535362174B87
:1006D0005B6A164A23F400535362144B1B69134A96
:1006E00043F008031361114B1B69104A23F0080300
:1006F00013610E4B1B690D4A43F0040313610B4B4E
:100700001B690A4A23F00403136102F039F900F06F
:1007100055FE7B681B687A68526883F30888104727
:1007200000BF0837BD4680BD008000080038024089
:1007300080B590B000AF786007F11C03184601F057
:10074000ABF900F0C5FF034687F83F300023BB60DC
:100750000023FB607B683B6101237B610223BB615B
:1007600007F1380207F108031146184601F022F993
:10077000034687F83F3097F83F30002B00D0FEE764
:1007800000BF4037BD4680BDB0B586B000AFF86051
:10079000B9607A6000F09CFF0346FB7400237B6124
:1007A00017E0FA687B69D118BA687B6913441B6843
:1007B00000221C46154622462B46022000F034FF3C
:1007C0000346FB74FB7C002B00D0FEE77B690433FF
:1007D0007B617A697B689A42E3D300F09BFF034612
:1007E000FB7400BF1837BD46B0BD000080B582B0B5
:1007F00000AF7860FFF738FF0346044A1360044AED
:100800007B68136000BF0837BD4680BD58010020DB
:100810005C01002080B400AF00BFBD465DF8047BE2
:100820007047000080B500AF054B1B68054A126891
:1008300011461846FFF71FFF0346184680BD00BF4C
:10084000580100205C01002080B582B000AF034653
:10085000FB71FB7964211846FFF77EFE00BF083765
:10086000BD4680BD80B582B000AF78607868FFF784
:100870009FFE034618460837BD4680BD80B582B04E
:1008800000AF7860094B1B684FF4806279681846A6
:10089000FFF77AFF054B1B6803F58063034A13607B
:1008A000012318460837BD4680BD00BF2000002048
:1008B00080B582B000AF0023FB710223FB7106E01C
:1008C000FB791846FFF734FFFB790133FB71FB79A5
:1008D000132BF5D900BF00BF0837BD4680BD00000F
:1008E00080B500AF20220021034805F0D5FA034B64
:1008F00000221A7000BF80BD60010020800100202E
:1009000080B584B002AF00237B600123FB7000231D
:10091000BB7000F031FD00F08FF800F04DF900F0F1
:1009200021F900F0E9F802F05FFFFFF7D9FFFFF7C8
:1009300077FE354B0093354B354A3649364800F043
:100940004FFB0346354A13603548FFF751FC034619
:100950004FF47A7219463248FFF744FE40F6B83039
:10096000FFF744FF21E0BB1C1846FFF721FE0346BA
:10097000002B09D02B4B1B785A1CD1B2294A11707D
:100980001A46B978284B9954FFF74CFF0346002BC1
:1009900003D1244B1B78082B07D108222349224876
:1009A00005F0ECFA78600023FB70FB78002BDAD1BD
:1009B0001B48FFF71DFC03464FF47A72194618488E
:1009C000FFF710FE7B68002B18D11948FFF710FCC9
:1009D00003464FF47A7219461548FFF703FEFFF7F6
:1009E00067FF0E4B1B68184600F036FB0B4B1B686D
:1009F0001049184600F048FB00F08CFEFFF750FE4F
:100A000002F016FFFEE700BF2508000815080008E1
:100A1000ED0700086508000849080008B800002034
:100A2000000000208001002060010020180000204C
:100A3000140000207D08000880B594B000AF07F1D5
:100A4000200330220021184605F026FA07F10C0396
:100A500000221A605A609A60DA601A610023BB6053
:100A6000234B1B6C224A43F080531364204B1B6CB6
:100A700003F08053BB60BB6800237B601D4B1B6889
:100A800023F440431B4A43F480431360194B1B6813
:100A900003F440437B607B6802233B620123FB62DB
:100AA00010233B630023BB6307F12003184601F0CA
:100AB000DDFA0346002B01D000F0C6F80F23FB60DF
:100AC00000233B6100237B610023BB610023FB61AA
:100AD00007F10C030021184601F040FD0346002BEE
:100AE00001D000F0B1F800BF5037BD4680BD00BF57
:100AF000003802400070004080B500AF174B184A24
:100B00001A60164B4FF482725A60144B00229A609E
:100B1000124B0022DA60114B00221A610F4B0022A7
:100B20005A610E4B4FF400729A610C4B0022DA614D
:100B30000A4B00221A62094B00225A62074B00221C
:100B40009A62064B0A22DA62044802F011F8034660
:100B5000002B01D000F078F800BF80BDBC00002061
:100B60000034014080B500AF114B124A1A60104B9F
:100B70004FF4E1325A600E4B00229A600C4B002277
:100B8000DA600B4B00221A61094B0C225A61084BA8
:100B900000229A61064B0022DA61054802F01EFB32
:100BA0000346002B01D000F04FF800BF80BD00BF0E
:100BB000140100200050004080B485B000AF002335
:100BC000FB60174B1B6B164A43F010031363144B67
:100BD0001B6B03F01003FB60FB680023BB60104B32
:100BE0001B6B0F4A43F0040313630D4B1B6B03F0A5
:100BF0000403BB60BB6800237B60094B1B6B084A86
:100C000043F008031363064B1B6B03F008037B6080
:100C10007B6800BF1437BD465DF8047B704700BF9A
:100C20000038024080B582B000AF78607B681B68F6
:100C3000044A934201D100F0F5FB00BF0837BD46DE
:100C400080BD00BF0010004080B400AF72B600BF8E
:100C5000FEE7000080B582B000AF00237B60124B3E
:100C60005B6C114A43F4804353640F4B5B6C03F499
:100C700080437B607B6800233B600B4B1B6C0A4A04
:100C800043F080531364084B1B6C03F080533B60AC
:100C90003B6800220F216FF0010000F09BFC00BFB9
:100CA0000837BD4680BD00BF0038024080B58AB01D
:100CB00000AF786007F1140300221A605A609A604E
:100CC000DA601A617B681B68194A93422BD10023B2
:100CD0003B61184B5B6C174A43F400535364154B4C
:100CE0005B6C03F400533B613B690023FB60114BD9
:100CF0001B6B104A43F0100313630E4B1B6B03F086
:100D00001003FB60FB6864237B610223BB6100234B
:100D1000FB6103233B6205237B6207F11403194641
:100D2000054800F0F7FF00BF2837BD4680BD00BF73
:100D300000340140003802400010024080B58AB003
:100D400000AF786007F1140300221A605A609A60BD
:100D5000DA601A617B681B68284A93424AD10023F3
:100D60003B61274B1B6C264A43F480131364244BCE
:100D70001B6C03F480133B613B690023FB60204B39
:100D80001B6B1F4A43F0040313631D4B1B6B03F0E3
:100D90000403FB60FB680023BB60194B1B6B184A04
:100DA00043F008031363164B1B6B03F00803BB608F
:100DB000BB684FF480537B610223BB610023FB615E
:100DC00003233B6208237B6207F1140319460D4895
:100DD00000F0A0FF04237B610223BB610023FB61C1
:100DE00003233B6208237B6207F11403194606487C
:100DF00000F090FF00BF2837BD4680BD0050004086
:100E00000038024000080240000C024080B58EB05D
:100E100000AF78600023FB620023BB620023FB600D
:100E2000334B1B6C324A43F010031364304B1B6C82
:100E300003F01003FB60FB6807F1100207F11403D5
:100E40001146184601F06AFD3B6AFB62FB6A002B03
:100E500003D101F03BFD786304E001F037FD034668
:100E60005B007B637B6B234AA2FB03239B0C013B50
:100E7000BB62214B214A1A601F4B40F2E732DA6015
:100E80001D4ABB6A53601C4B00221A611A4B002298
:100E90009A60194B00229A61174801F0F2FE03464E
:100EA00087F8333097F83330002B1BD1124801F00C
:100EB00041FF034687F8333097F83330002B11D1C8
:100EC000362000F0A3FB7B680F2B08D8002279683E
:100ED000362000F07FFB0A4A7B68136002E00123A2
:100EE00087F8333097F8333018463837BD4680BD21
:100EF0000038024083DE1B438401002000100040C4
:100F00002800002080B400AFFEE780B400AFFEE709
:100F100080B400AFFEE780B400AFFEE780B400AF5E
:100F2000FEE780B400AF00BFBD465DF8047B7047AC
:100F300080B500AF024801F06DFF00BF80BD00BF6B
:100F40008401002080B400AF064BD3F88830054AF6
:100F500043F47003C2F8883000BFBD465DF8047BDF
:100F6000704700BF00ED00E080B485B000AF78604E
:100F70000B467B800023BB8123E00823FB737B6847
:100F80005A1C7A601B781B021AB2B7F90C30534016
:100F90001BB2BB81B7F90C30002B09DABB895B00AF
:100FA0001BB283F4815383F001031BB2BB8102E0C7
:100FB000BB895B00BB81FB7B013BFB73FB7B002B95
:100FC000E8D17B88013B9BB27B80B7F90230002BD4
:100FD000D3DABB8918461437BD465DF8047B7047E9
:100FE00080B487B000AFF860B9607A603B600023DE
:100FF0007B61174B1B78012B0ED8154B1B785A1CA5
:10100000D1B2134A11701A4640F2244302FB03F393
:10101000104A13447B6104E07B6903F224437B6143
:10102000FAE77B69FA685A607B69BA689A607B69FB
:101030007A68DA607B693A681A617B693A6A5A6150
:101040007B6918461C37BD465DF8047B704700BFBE
:10105000140A0020CC01002080B485B000AF786075
:101060007B68FB60FB6800221A83FB6800225A83BE
:10107000FB6800225A77FB6800229A7700BF14377A
:10108000BD465DF8047B704780B584B000AF7860E2
:1010900039600023FB817B68BB607868FFF7DCFF69
:1010A000BB6801221A77BB685B6843209847BB681E
:1010B000DB684FF47A70984729E1BB689B68BA688F
:1010C0001D32104698470346002B00F00D81BB6887
:1010D0001B699847BB6801229A77BB681B8B40F25B
:1010E0000442934200F0B68040F20442934200F37F
:1010F000E98040F20342934200F0A08040F20342B4
:10110000934200F3DF80802B5DD0802B00F3DA80E8
:101110007F2B3CD07F2B00F3D580002B07D0002BFA
:10112000C0F2D080013B012B00F2CC8028E0BB68EC
:101130005B7F022B07D1BB68012283F82020BB68AC
:1011400001221A83E3E0BB685B7F012B07D1BB68F8
:10115000002283F82020BB6801221A83D7E0BB68F5
:101160005B7F042B03D0BB685B7F1A2B07D1BB6866
:101170005B6806209847BB6800221A77C7E0FEE745
:10118000BB681B8B01339AB2BB681A83BFE0BB6894
:1011900093F82030002B05D1BB685B7F9AB2BB6807
:1011A0005A8309E0BB681B8B033BBA68517FBA685E
:1011B00013440A4683F82420BB681B8B01339AB280
:1011C000BB681A83A3E0BB6893F82030002B24D1BE
:1011D000BB685B8B1B029AB2BB685A83BB685A8B95
:1011E000BB685B7F9BB213439AB2BB685A83BB68F0
:1011F00003F124023B68104698470346002B04D0B5
:10120000BB685B680620984703E0BB685B681520F5
:101210009847BB6800221A8379E0BB681B8B033BAD
:10122000BA68517FBA6813440A4683F82420BB6821
:101230001B8B01339AB2BB681A8368E0BB685B7F83
:101240009AB2BB685A83BB681B8B01339AB2BB68E6
:101250001A835CE0BB685B8B1B029AB2BB685A8343
:10126000BB685A8BBB685B7F9BB213439AB2BB6867
:101270005A83BB6824334FF480611846FFF774FE2D
:101280000346FB81BB685B8BFA899A4212D1BB682B
:1012900003F124023B68104698470346002B04D014
:1012A000BB685B680620984708E0BB685B68152050
:1012B000984703E0BB685B6815209847BB6800222D
:1012C0001A8324E0BB681B8B033BBA68517FBA6862
:1012D00013440A4683F82420BB681B8B01339AB25F
:1012E000BB681A8300BF12E0BB685B69984703467E
:1012F000002B0CD0BB689B7F002B08D1BB685B68C0
:1013000043209847BB68DB684FF47A709847BB6806
:101310001B7F002B7FF4D1AE012318461037BD464A
:1013200080BD0000DFF834D00D480E490E4A00237E
:1013300002E0D458C4500433C4188C42F9D30B4A89
:101340000B4C002301E013600432A242FBD3FFF7F1
:10135000F9FD04F06DFDFFF7D3FA7047000003209C
:1013600000000020980000200C6100089800002078
:101370004C180020FEE7000080B500AF0E4B1B6844
:101380000D4A43F4007313600B4B1B680A4A43F485
:1013900080631360084B1B68074A43F48073136033
:1013A000032000F00CF90F20FFF730FDFFF752FC8F
:1013B0000023184680BD00BF003C024080B500AF4E
:1013C000134B4FF0FF321A62114B00221A62104B7E
:1013D0004FF0FF325A620E4B00225A620C4B4FF014
:1013E000FF321A610A4B00221A61094B4FF0FF329B
:1013F0005A61074B00225A61054B4FF0FF329A6148
:10140000034B00229A6100F005F80023184680BDC6
:101410000038024080B400AF00BFBD465DF8047BD9
:101420007047000080B400AF064B1B781A46064B8D
:101430001B681344044A136000BFBD465DF8047B7B
:10144000704700BF2C000020180A002080B400AFB5
:10145000034B1B681846BD465DF8047B704700BF10
:10146000180A002080B485B000AF78607B6803F074
:101470000703FB600C4BDB68BB60BA684FF6FF03E9
:101480001340BB60FB681A02BB68134343F0BF63A1
:1014900043F40033BB60044ABB68D36000BF143719
:1014A000BD465DF8047B704700ED00E080B400AFFE
:1014B000044BDB681B0A03F007031846BD465DF8C2
:1014C000047B704700ED00E080B483B000AF0346BA
:1014D000FB7197F90730002B0BDBFB7903F01F0240
:1014E000074997F907305B09012000FA02F241F839
:1014F000232000BF0C37BD465DF8047B704700BF5A
:1015000000E100E080B483B000AF03463960FB71B6
:1015100097F90730002B0ADB3B68DAB20C4997F9E0
:1015200007301201D2B20B4483F800230AE03B6873
:10153000DAB20849FB7903F00F03043B1201D2B27F
:101540000B441A7600BF0C37BD465DF8047B70472C
:1015500000E100E000ED00E080B489B000AFF86089
:10156000B9607A60FB6803F00703FB61FB69C3F1B4
:101570000703042B28BF0423BB61FB690433062B3C
:1015800002D9FB69033B00E000237B614FF0FF328F
:10159000BB6902FA03F3DA43BB681A407B699A40DD
:1015A0004FF0FF317B6901FA03F3D9437B680B40AD
:1015B000134318462437BD465DF8047B704780B559
:1015C00082B000AF78607868FFF74CFF00BF083743
:1015D000BD4680BD80B586B000AF0346B9607A6075
:1015E000FB7300237B61FFF761FF78617A68B9685C
:1015F0007869FFF7B1FF024697F90F301146184698
:10160000FFF780FF00BF1837BD4680BD80B582B0B0
:1016100000AF0346FB7197F907301846FFF754FFF8
:1016200000BF0837BD4680BD80B586B000AFF8600A
:10163000B960C7E900230123FB75234B1B7E012BF7
:1016400001D102233BE0204B01221A764CF25030AC
:1016500000F070F80346FB75FB7D002B2BD1FB6877
:10166000002B05D13B781946B86800F01BF916E04D
:10167000FB68012B05D13B881946B86800F0EEF8ED
:101680000DE0FB68022B05D13B681946B86800F0F5
:10169000C3F804E0D7E90023B86800F08BF84CF2F7
:1016A000503000F047F80346FB75084B1B69074AAA
:1016B00023F001031361044B00221A76FB7D1846C8
:1016C0001837BD4680BD00BF1C0A0020003C024008
:1016D00080B483B000AF0023FB710B4B1B69002B60
:1016E0000BDA094B094A5A60074B094A5A60064B04
:1016F0001B69002B01DA0123FB71FB7918460C37BB
:10170000BD465DF8047B7047003C024023016745FD
:10171000AB89EFCD80B400AF054B1B69044A43F0A1
:101720000043136100231846BD465DF8047B7047F3
:10173000003C024080B584B000AF78600023FB60BD
:101740001A4B0022DA61FFF781FEF86010E07B6837
:10175000B3F1FF3F0CD07B68002B07D0FFF776FE7C
:101760000246FB68D31A7A689A4201D2032319E031
:101770000F4BDB6803F48033002BE8D10C4BDB68A4
:1017800003F00103002B02D0094B0122DA60084B61
:10179000DB6803F4F973002B03D000F0A5F80123F4
:1017A00000E0002318461037BD4680BD1C0A00200B
:1017B000003C024080B485B000AFF860C7E9002368
:1017C000144B1B69134A23F440731361114B1B69BB
:1017D000104A43F4407313610E4B1B690D4A43F0EA
:1017E00001031361FB683A681A60BFF36F8F00BF93
:1017F000D7E900014FF000024FF000030A00002378
:10180000F968043113460B6000BF1437BD465DF81C
:10181000047B7047003C024080B483B000AF786026
:1018200039600D4B1B690C4A23F4407313610A4B5A
:101830001B69094A43F400731361074B1B69064A8D
:1018400043F0010313617B683A681A6000BF0C37EC
:10185000BD465DF8047B7047003C024080B483B015
:1018600000AF78600B467B800D4B1B690C4A23F45C
:10187000407313610A4B1B69094A43F48073136177
:10188000074B1B69064A43F0010313617B687A88A2
:101890001A8000BF0C37BD465DF8047B704700BF5F
:1018A000003C024080B483B000AF78600B46FB7010
:1018B0000C4B1B690B4A23F440731361094B094A13
:1018C0001B691361074B1B69064A43F0010313614F
:1018D0007B68FA781A7000BF0C37BD465DF8047B50
:1018E000704700BF003C024080B400AF2F4BDB6864
:1018F00003F01003002B08D02D4BDB6943F01003DD
:101900002B4AD361294B1022DA60284BDB6803F0A5
:101910002003002B08D0264BDB6943F00803244A40
:10192000D361224B2022DA60204BDB6803F04003B6
:10193000002B08D01E4BDB6943F004031C4AD36123
:101940001A4B4022DA60194BDB6803F08003002B4E
:1019500008D0174BDB6943F00203154AD361134BE0
:101960008022DA60114BDB6803F48073002B09D00E
:101970000F4BDB6943F001030D4AD3610B4B4FF46E
:101980008072DA60094BDB6803F00203002B08D099
:10199000074BDB6943F02003054AD361034B022266
:1019A000DA6000BFBD465DF8047B7047003C024032
:1019B0001C0A002080B584B000AF78603960012334
:1019C000FB730023BB60324B1B7E012B01D1022332
:1019D0005AE02F4B01221A764CF25030FFF7AAFE44
:1019E0000346FB73FB7B002B4AD13B684FF0FF3271
:1019F0001A607B681B68012B17D17B681B69DAB200
:101A00007B685B681946104600F06AF84CF250306B
:101A1000FFF790FE0346FB731E4B1B691D4A23F420
:101A2000004323F00403136128E07B689B68BB60DC
:101A30001CE07B681B69DBB21946B86800F08AF8C5
:101A40004CF25030FFF776FE0346FB73114B1B69D7
:101A5000104A23F0FA031361FB7B002B03D03B6891
:101A6000BA681A600AE0BB680133BB607B68DA6859
:101A70007B689B681344BA689A42DAD300F004F991
:101A8000034B00221A76FB7B18461037BD4680BDFB
:101A90001C0A0020003C024080B582B000AF786094
:101AA0007B680F221A6000F0B3F803461A467B6881
:101AB0009A6000F0B9F803461A467B681A6100F094
:101AC00097F803461A467B681A7600F0CDF803466D
:101AD0001A467B685A6100BF0837BD4680BD0000CA
:101AE00080B483B000AF03463960FB71184B1B69AB
:101AF000174A23F4407313613B68032B08D1144B3E
:101B00001B69134A43F4004343F0040313610FE0DD
:101B10003B68012B06D10E4B1B690D4A43F00403B1
:101B2000136105E00A4B1B69094A43F40043136142
:101B3000074B1A69FB791B021343054A43F48033B0
:101B4000136100BF0C37BD465DF8047B704700BFD2
:101B5000003C024080B485B000AF78600B46FB705B
:101B60000023FB60FB78002B02D10023FB6010E018
:101B7000FB78012B03D14FF48073FB6009E0FB7805
:101B8000022B03D14FF40073FB6002E04FF440736B
:101B9000FB607B680B2B02D97B6804337B60134BA3
:101BA0001B69124A23F440731361104B1A690F49E1
:101BB000FB6813430B610D4B1B690C4A23F0F803C0
:101BC00013610A4B1A697B68DB001343074A43F031
:101BD00002031361054B1B69044A43F4803313610C
:101BE00000BF1437BD465DF8047B7047003C0240DF
:101BF00080B400AF054B5B69DBB223F01F03DBB29F
:101C00001846BD465DF8047B704700BF003C0240AB
:101C100080B400AF034B1B889BB21846BD465DF8ED
:101C2000047B7047163C024080B483B000AFAA2307
:101C3000FB710C4B1B78DBB2CC2B02D1CC23FB719C
:101C400009E0084B1B78DBB2AA2B02D1AA23FB7157
:101C500001E05523FB71FB7918460C37BD465DF852
:101C6000047B7047153C024080B400AF054B1B78E5
:101C7000DBB203F00C03DBB21846BD465DF8047B13
:101C8000704700BF143C024080B400AF204B1B687B
:101C900003F40073002B17D01D4B1B681C4A23F460
:101CA000007313601A4B1B68194A43F400631360F6
:101CB000174B1B68164A23F400631360144B1B6810
:101CC000134A43F400731360114B1B6803F48063E1
:101CD000002B17D00E4B1B680D4A23F48063136052
:101CE0000B4B1B680A4A43F480531360084B1B6874
:101CF000074A23F480531360054B1B68044A43F4DE
:101D00008063136000BFBD465DF8047B704700BF71
:101D1000003C024080B489B000AF78603960002395
:101D20007B6100233B610023BB610023FB6177E102
:101D30000122FB6902FA03F37B613B681B687A6945
:101D400013403B613A697B699A4240F066813B6887
:101D50005B6803F00303012B05D03B685B6803F06D
:101D60000303022B30D17B689B68BB61FB695B007E
:101D7000032202FA03F3DB43BA691340BB613B68F9
:101D8000DA68FB695B0002FA03F3BA691343BB61CB
:101D90007B68BA699A607B685B68BB610122FB69FA
:101DA00002FA03F3DB43BA691340BB613B685B682B
:101DB0001B0903F00102FB6902FA03F3BA6913433A
:101DC000BB617B68BA695A603B685B6803F00303D8
:101DD000032B17D07B68DB68BB61FB695B000322C8
:101DE00002FA03F3DB43BA691340BB613B689A68AC
:101DF000FB695B0002FA03F3BA691343BB617B68BA
:101E0000BA69DA603B685B6803F00303022B23D1F5
:101E1000FB69DA087B68083253F82230BB61FB6942
:101E200003F007039B000F2202FA03F3DB43BA69B6
:101E30001340BB613B681A69FB6903F007039B0011
:101E400002FA03F3BA691343BB61FB69DA087B68E2
:101E50000832B96943F822107B681B68BB61FB69D3
:101E60005B00032202FA03F3DB43BA691340BB6150
:101E70003B685B6803F00302FB695B0002FA03F353
:101E8000BA691343BB617B68BA691A603B685B68D7
:101E900003F44033002B00F0C0800023FB60664B4E
:101EA0005B6C654A43F480435364634B5B6C03F49F
:101EB0008043FB60FB68614AFB699B08023352F870
:101EC0002330BB61FB6903F003039B000F2202FA7E
:101ED00003F3DB43BA691340BB617B68584A934202
:101EE00037D07B68574A934231D07B68564A934239
:101EF0002BD07B68554A934225D07B68544A934245
:101F00001FD07B68534A934219D07B68524A934250
:101F100013D07B68514A93420DD07B68504A93425C
:101F200007D07B684F4A934201D1092312E00A236C
:101F300010E008230EE007230CE006230AE0052347
:101F400008E0042306E0032304E0022302E0012367
:101F500000E00023FA6902F0030292009340BA699C
:101F60001343BB613549FB699B080233BA6941F8E9
:101F700023203D4B9B68BB613B69DB43BA6913403F
:101F8000BB613B685B6803F48013002B03D0BA6924
:101F90003B691343BB61344ABB699360324BDB68D6
:101FA000BB613B69DB43BA691340BB613B685B685B
:101FB00003F40013002B03D0BA693B691343BB61E0
:101FC000294ABB69D360284B5B68BB613B69DB4333
:101FD000BA691340BB613B685B6803F40033002BB4
:101FE00003D0BA693B691343BB611F4ABB695360A5
:101FF0001D4B1B68BB613B69DB43BA691340BB6186
:102000003B685B6803F48033002B03D0BA693B69FB
:102010001343BB61144ABB691360FB690133FB6165
:10202000FB690F2B7FF684AE00BF00BF2437BD468F
:102030005DF8047B704700BF003802400038014063
:10204000000002400004024000080240000C024070
:10205000001002400014024000180240001C024020
:102060000020024000240240003C014080B586B0C0
:1020700000AF78607B68002B01D1012367E27B68A9
:102080001B6803F00103002B75D0884B9B6803F09D
:102090000C03042B0CD0854B9B6803F00C03082B1E
:1020A00012D1824B5B6803F48003B3F5800F0BD130
:1020B0007E4B1B6803F40033002B5BD07B685B68AE
:1020C000002B57D1012342E27B685B68B3F5803F68
:1020D00006D1764B1B68754A43F4803313601DE0CC
:1020E0007B685B68B3F5A02F0CD1704B1B686F4AFF
:1020F00043F4802313606D4B1B686C4A43F48033B8
:1021000013600BE0694B1B68684A23F4803313604B
:10211000664B1B68654A23F4802313607B685B6809
:10212000002B13D0FFF792F9386108E0FFF78EF922
:1021300002463B69D31A642B01D9032307E25B4BA8
:102140001B6803F40033002BF0D014E0FFF77EF996
:10215000386108E0FFF77AF902463B69D31A642B2D
:1021600001D90323F3E1514B1B6803F40033002B27
:10217000F0D100E000BF7B681B6803F00203002B76
:1021800063D04A4B9B6803F00C03002B0BD0474BEA
:102190009B6803F00C03082B1CD1444B5B6803F4D1
:1021A0008003002B16D1414B1B6803F00203002B68
:1021B00005D07B68DB68012B01D00123C7E13B4BD5
:1021C0001B6823F0F8027B681B69DB003749134367
:1021D0000B603AE07B68DB68002B20D0344B012297
:1021E0001A60FFF733F9386108E0FFF72FF902466C
:1021F0003B69D31A022B01D90323A8E12B4B1B689F
:1022000003F00203002BF0D0284B1B6823F0F802E8
:102210007B681B69DB00254913430B6015E0244BE9
:1022200000221A60FFF712F9386108E0FFF70EF993
:1022300002463B69D31A022B01D9032387E11B4BCA
:102240001B6803F00203002BF0D17B681B6803F0CE
:102250000803002B36D07B685B69002B16D0154B2A
:1022600001221A60FFF7F2F8386108E0FFF7EEF894
:1022700002463B69D31A022B01D9032367E10B4BBA
:102280005B6F03F00203002BF0D01BE0094B002230
:102290001A60FFF7DBF838610EE0FFF7D7F8024667
:1022A0003B69D31A022B07D9032350E100380240BF
:1022B00000004742800E4742884B5B6F03F00203E9
:1022C000002BEAD17B681B6803F00403002B00F0AD
:1022D00097800023FB75814B1B6C03F08053002B10
:1022E0000FD10023BB607D4B1B6C7C4A43F08053B5
:1022F00013647A4B1B6C03F08053BB60BB680123F3
:10230000FB75774B1B6803F48073002B18D1744B5B
:102310001B68734A43F480731360FFF797F83861C2
:1023200008E0FFF793F802463B69D31A022B01D964
:1023300003230CE16A4B1B6803F48073002BF0D07D
:102340007B689B68012B06D1644B1B6F634A43F08B
:10235000010313671CE07B689B68052B0CD15F4B66
:102360001B6F5E4A43F0040313675C4B1B6F5B4AB1
:1023700043F0010313670BE0584B1B6F574A23F0E0
:1023800001031367554B1B6F544A23F00403136773
:102390007B689B68002B15D0FFF758F838610AE07E
:1023A000FFF754F802463B69D31A41F28832934250
:1023B00001D90323CBE0494B1B6F03F00203002B31
:1023C000EED014E0FFF742F838610AE0FFF73EF87C
:1023D00002463B69D31A41F28832934201D9032362
:1023E000B5E03E4B1B6F03F00203002BEED1FB7DEB
:1023F000012B05D1394B1B6C384A23F080531364F1
:102400007B689B69002B00F0A180344B9B6803F034
:102410000C03082B5CD07B689B69022B41D1314BAC
:1024200000221A60FFF712F8386108E0FFF70EF893
:1024300002463B69D31A022B01D9032387E0274BBD
:102440001B6803F00073002BF0D17B68DA697B68AE
:102450001B6A1A437B685B6A9B011A437B689B6A11
:102460005B08013B1B041A437B68DB6A1B061B49A4
:1024700013434B601B4B01221A60FEF7E7FF3861E4
:1024800008E0FEF7E3FF02463B69D31A022B01D9AD
:1024900003235CE0114B1B6803F00073002BF0D0AA
:1024A00054E0104B00221A60FEF7D0FF386108E0BC
:1024B000FEF7CCFF02463B69D31A022B01D9032356
:1024C00045E0064B1B6803F00073002BF0D13DE0A4
:1024D0007B689B69012B07D1012338E0003802405B
:1024E00000700040600047421B4B5B68FB607B68EC
:1024F0009B69012B28D0FB6803F480027B68DB69B1
:102500009A4221D1FB6803F03F027B681B6A9A4222
:102510001AD1FA6847F6C07313407A68526A92017A
:10252000934211D1FB6803F440327B689B6A5B08DD
:10253000013B1B049A4207D1FB6803F070627B6881
:10254000DB6A1B069A4201D0012300E000231846F3
:102550001837BD4680BD00BF0038024080B584B04A
:1025600000AF786039607B68002B01D10123CCE09B
:10257000684B1B6803F00F033A689A420CD9654B0D
:102580003A68D2B21A70634B1B6803F00F033A68C3
:102590009A4201D00123B8E07B681B6803F0020374
:1025A000002B20D07B681B6803F00403002B05D0B0
:1025B000594B9B68584A43F4E05393607B681B680F
:1025C00003F00803002B05D0534B9B68524A43F499
:1025D00060439360504B9B6823F0F0027B689B68DC
:1025E0004D4913438B607B681B6803F00103002B8C
:1025F00044D07B685B68012B07D1474B1B6803F411
:102600000033002B19D101237FE07B685B68022B2C
:1026100003D07B685B68032B07D13F4B1B6803F03B
:102620000073002B09D101236FE03B4B1B6803F0C3
:102630000203002B01D1012367E0374B9B6823F095
:1026400003027B685B68344913438B60FEF7FEFE30
:10265000F8600AE0FEF7FAFE0246FB68D31A41F280
:102660008832934201D903234FE02B4B9B6803F040
:102670000C027B685B689B009A42EBD1254B1B6880
:1026800003F00F033A689A420CD2224B3A68D2B256
:102690001A70204B1B6803F00F033A689A4201D06E
:1026A000012332E07B681B6803F00403002B08D091
:1026B000194B9B6823F4E0527B68DB68164913438F
:1026C0008B607B681B6803F00803002B09D0124B5A
:1026D0009B6823F460427B681B69DB000E4913434F
:1026E0008B6000F021F802460B4B9B681B0903F03E
:1026F0000F030A49CB5C22FA03F3094A1360094B22
:102700001B681846FEF782FB002318461037BD46AB
:1027100080BD00BF003C02400038024084600008D9
:1027200024000020280000202DE9B04F90B000AF19
:1027300000237B630023FB6300233B630023BB6315
:10274000594B9B6803F00C03082B0DD0082B00F2AB
:10275000A180002B02D0042B03D09BE0534BBB6322
:102760009BE0534BBB6398E04F4B5B6803F03F0328
:102770007B634D4B5B6803F48003002B28D04A4BEE
:102780005B689B0900223B627A623B6AC3F30800E4
:102790000021474B03FB01F2002300FB03F313442A
:1027A000434AA0FB0212FA620A46BA62FA6A13446A
:1027B000FB627B6B0022BB61FA61D7E90623D7E994
:1027C0000A01FDF71DFD02460B461346FB6353E06D
:1027D000354B5B689B0900223B617A613B69C3F31F
:1027E000080A4FF0000B52465B464FF000004FF0D6
:1027F0000001590141EAD261500102460B46B2EB99
:102800000A0863EB0B094FF000024FF000034FEA98
:10281000891343EA98634FEA8812B2EB080463EB2A
:1028200009054FF000024FF00003EB0043EA547338
:10283000E20014461D4614EB0A033B6045EB0B0314
:102840007B604FF000024FF00003D7E900452946B6
:102850008B02214643EA915321468A0210461946CB
:102860007B6B0022BB60FA60D7E90223FDF7C8FC4E
:1028700002460B461346FB630B4B5B681B0C03F0D5
:10288000030301335B003B63FA6B3B6BB2FBF3F377
:10289000BB6302E0054BBB6300BFBB6B1846403710
:1028A000BD46BDE8B08F00BF003802400024F400F0
:1028B00040787D0180B400AF034B1B681846BD46CD
:1028C0005DF8047B704700BF2400002080B500AF96
:1028D000FFF7F0FF0246054B9B689B0A03F00703D6
:1028E0000349CB5C22FA03F3184680BD003802404E
:1028F0009460000880B500AFFFF7DCFF0246054B8F
:102900009B685B0B03F007030349CB5C22FA03F3DC
:10291000184680BD003802409460000880B483B03F
:1029200000AF786039607B680F221A60124B9B6899
:1029300003F003027B685A600F4B9B6803F0F002C0
:102940007B689A600C4B9B6803F4E0527B68DA600A
:10295000094B9B68DB0803F4E0527B681A61074B64
:102960001B6803F00F023B681A6000BF0C37BD46BE
:102970005DF8047B704700BF00380240003C024015
:1029800080B582B000AFFEF761FD7860724B1B68C6
:10299000714A43F00103136008E0FEF757FD024659
:1029A0007B68D31A022B01D90323D0E06A4B1B6842
:1029B00003F00203002BF0D0674B1B68664A43F01C
:1029C00080031360FEF742FD7860634B00229A603B
:1029D0000AE0FEF73BFD02467B68D31A41F28832DB
:1029E000934201D90323B2E05B4B9B6803F00C03D5
:1029F000002BEED1FEF72AFD7860574B1B68564A34
:102A000023F45023136008E0FEF720FD02467B68A4
:102A1000D31A642B01D9032399E04F4B1B6803F4AD
:102A20000033002BF0D1FEF711FD78604A4B1B6894
:102A3000494A23F08073136008E0FEF707FD024661
:102A40007B68D31A022B01D9032380E0424B1B6819
:102A500003F00073002BF0D1FEF7F8FC78603E4BDA
:102A60001B683D4A23F08063136008E0FEF7EEFC2C
:102A700002467B68D31A022B01D9032367E0364B49
:102A80001B6803F00063002BF0D1FEF7DFFC7860D9
:102A9000314B1B68304A23F08053136008E0FEF787
:102AA000D5FC02467B68D31A022B01D903234EE0E2
:102AB000294B1B6803F00053002BF0D1264B274A0B
:102AC0005A60254B264AC3F88420234B244AC3F876
:102AD0008820214BDB68204A23F4F853D3601E4B37
:102AE000DB681D4A23F40053D3601B4BDB681A4A92
:102AF00023F48043D360184BDB68174A43F41F0369
:102B0000D360154BDB68144A43F40013D360124BB7
:102B1000DB68114A43F48003D3600F4B5B6F0E4AAE
:102B200023F0010353670C4B5B6F0B4A43F0807338
:102B300053670C4B0C4A1A600C4B1B681846FEF787
:102B400065F90346002B01D0012300E0002318465D
:102B50000837BD4680BD00BF003802401030000479
:102B600000300024240000200024F400280000206D
:102B700080B582B000AF78607B68002B01D1012363
:102B80007BE07B685B6A002B08D17B685B68B3F5F0
:102B9000827F09D07B680022DA6105E07B68002231
:102BA0001A617B6800225A617B6800229A627B6806
:102BB00093F85130DBB2002B06D17B68002283F8FA
:102BC00050207868FEF772F87B68022283F8512063
:102BD0007B681B681A687B681B6822F040021A60D9
:102BE0007B685B6803F482727B689B6803F4044330
:102BF0001A437B68DB6803F400631A437B681B6934
:102C000003F002031A437B685B6903F001031A4374
:102C10007B689B6903F400731A437B68DB6903F0EC
:102C200038031A437B681B6A03F0800342EA0301FE
:102C30007B689B6A03F400527B681B680A431A6036
:102C40007B689B691B0C03F004017B685B6A03F0E3
:102C500010027B681B680A435A607B681B68DA694C
:102C60007B681B6822F40062DA617B6800225A6587
:102C70007B68012283F85120002318460837BD469F
:102C800080BD80B582B000AF78607B68002B01D139
:102C9000012341E07B6893F83D30DBB2002B06D185
:102CA0007B68002283F83C20786800F039F87B6864
:102CB000022283F83D207B681A687B68043319463A
:102CC000104600F0D7F97B68012283F846207B6824
:102CD000012283F83E207B68012283F83F207B6835
:102CE000012283F840207B68012283F841207B6821
:102CF000012283F842207B68012283F843207B680D
:102D0000012283F844207B68012283F845207B68F8
:102D1000012283F83D20002318460837BD4680BDB8
:102D200080B483B000AF786000BF0C37BD465DF85B
:102D3000047B704780B485B000AF78607B6893F8FF
:102D40003D30DBB2012B01D001234EE07B68022233
:102D500083F83D207B681B68DA687B681B6842F05B
:102D60000102DA607B681B68234A934222D07B68A9
:102D70001B68B3F1804F1DD07B681B681F4A9342CC
:102D800018D07B681B681E4A934213D07B681B686F
:102D90001C4A93420ED07B681B681B4A934209D0A1
:102DA0007B681B68194A934204D07B681B68184AE9
:102DB000934211D17B681B689B6803F00703FB609B
:102DC000FB68062B10D07B681B681A687B681B6841
:102DD00042F001021A6007E07B681B681A687B6892
:102DE0001B6842F001021A60002318461437BD46E2
:102DF0005DF8047B704700BF000001400004004004
:102E000000080040000C0040000401400040014068
:102E10000018004080B582B000AF78607B681B6806
:102E20001B6903F00203022B22D17B681B68DB685D
:102E300003F00203022B1BD17B681B686FF00202B8
:102E40001A617B6801221A777B681B689B6903F013
:102E50000303002B03D0786800F0EEF805E07868F3
:102E600000F0E0F8786800F0F1F87B6800221A774B
:102E70007B681B681B6903F00403042B22D17B6869
:102E80001B68DB6803F00403042B1BD17B681B6801
:102E90006FF004021A617B6802221A777B681B6854
:102EA0009B6903F44073002B03D0786800F0C4F8EA
:102EB00005E0786800F0B6F8786800F0C7F87B683D
:102EC00000221A777B681B681B6903F00803082B34
:102ED00022D17B681B68DB6803F00803082B1BD139
:102EE0007B681B686FF008021A617B6804221A77FE
:102EF0007B681B68DB6903F00303002B03D0786851
:102F000000F09AF805E0786800F08CF8786800F036
:102F10009DF87B6800221A777B681B681B6903F0A9
:102F20001003102B22D17B681B68DB6803F01003B1
:102F3000102B1BD17B681B686FF010021A617B6835
:102F400008221A777B681B68DB6903F44073002B47
:102F500003D0786800F070F805E0786800F062F857
:102F6000786800F073F87B6800221A777B681B682A
:102F70001B6903F00103012B0ED17B681B68DB6822
:102F800003F00103012B07D17B681B686FF001027E
:102F90001A617868FDF746FE7B681B681B6903F0C1
:102FA0008003802B0ED17B681B68DB6803F08003F5
:102FB000802B07D17B681B686FF080021A617868EC
:102FC00000F002F97B681B681B6903F04003402B8B
:102FD0000ED17B681B68DB6803F04003402B07D1F0
:102FE0007B681B686FF040021A61786800F038F85F
:102FF0007B681B681B6903F02003202B0ED17B68C4
:103000001B68DB6803F02003202B07D17B681B685B
:103010006FF020021A61786800F0CCF800BF083722
:10302000BD4680BD80B483B000AF786000BF0C3770
:10303000BD465DF8047B704780B483B000AF786014
:1030400000BF0C37BD465DF8047B704780B483B089
:1030500000AF786000BF0C37BD465DF8047B704759
:1030600080B483B000AF786000BF0C37BD465DF818
:10307000047B704780B485B000AF786039607B68AE
:103080001B68FB607B68404A934213D07B68B3F1B6
:10309000804F0FD07B683D4A93420BD07B683C4AFF
:1030A000934207D07B683B4A934203D07B683A4AFD
:1030B000934208D1FB6823F07003FB603B685B68B8
:1030C000FA681343FB607B682F4A93422BD07B68DE
:1030D000B3F1804F27D07B682C4A934223D07B6882
:1030E0002B4A93421FD07B682A4A93421BD07B68AD
:1030F000294A934217D07B68284A934213D07B68B1
:10310000274A93420FD07B68264A93420BD07B68B4
:10311000254A934207D07B68244A934203D07B68B8
:10312000234A934208D1FB6823F44073FB603B6859
:10313000DB68FA681343FB60FB6823F080023B689E
:103140005B691343FB607B68FA681A603B689A68A6
:103150007B68DA623B681A687B689A627B680A4A15
:10316000934203D07B680C4A934203D13B681A69AF
:103170007B681A637B6801225A6100BF1437BD4621
:103180005DF8047B704700BF000001400004004070
:1031900000080040000C00400004014000400140D5
:1031A000004401400048014000180040001C00405D
:1031B0000020004080B483B000AF786000BF0C37BF
:1031C000BD465DF8047B704780B483B000AF786083
:1031D00000BF0C37BD465DF8047B704780B582B0F8
:1031E00000AF78607B68002B01D101233FE07B6852
:1031F00093F83D30DBB2002B06D17B68002283F8C8
:103200003C207868FDF79AFD7B68242283F83D20F6
:103210007B681B68DA687B681B6822F40052DA60FE
:10322000786800F029F87B681B681A697B681B685E
:1032300022F490421A617B681B685A697B681B689C
:1032400022F02A025A617B681B68DA687B681B6877
:1032500042F40052DA607B6800221A647B68202204
:1032600083F83D207B68202283F83E200023184607
:103270000837BD4680BD00002DE9B04FC0B000AF9B
:10328000C7F8F400D7F8F4301B681B6923F44050EA
:10329000D7F8F430D968D7F8F4301A6840EA010357
:1032A0001361D7F8F4309A68D7F8F4301B691A43E1
:1032B000D7F8F4305B691A43D7F8F430DB6913436D
:1032C000C7F8F830D7F8F4301B68DB6823F41641F0
:1032D00021F00C01D7F8F4301A68D7F8F8300B4316
:1032E000D360D7F8F4301B685B6923F44070D7F8DB
:1032F000F4309969D7F8F4301A6840EA0103536151
:10330000D7F8F4301A688F4B9A4205D0D7F8F430CA
:103310001A688D4B9A4204D1FFF7ECFAC7F8FC000B
:1033200003E0FFF7D3FAC7F8FC00D7F8F430DB6905
:10333000B3F5004F40F00C81D7F8FC300022C7F8FD
:10334000E830C7F8EC20D7E93A4522462B469118D9
:10335000B9655B41FB65D7E91623214612EB0108ED
:10336000294643EB01094FF000024FF000034FEAFA
:10337000C90343EA58734FEAC80290469946234668
:1033800018EB0303C7F8E0302B4649EB0303C7F8FB
:10339000E430D7F8F4305B680022C7F8D830C7F8BB
:1033A000DC20D7E936120B46DB183B65134642EBAF
:1033B00003037B65D7E91423D7E93801FCF720FF25
:1033C00002460B46614BA3FB02235B091C01D7F8A5
:1033D000FC300022C7F8D030C7F8D420D7E93489B0
:1033E00042464B469118B9645B41FB64D7E912230E
:1033F000414612EB010A494643EB010B4FF0000234
:103400004FF000034FEACB0343EA5A734FEACA0274
:1034100092469B4643461AEB0303C7F8C8304B4617
:103420004BEB0303C7F8CC30D7F8F4305B680022CD
:10343000C7F8C030C7F8C420D7E930120B46DB18F4
:103440003B64134642EB03037B64D7E91023D7E9BF
:103450003201FCF7D5FE02460B4611463B4BA3FB5F
:1034600001235B09642202FB03F3CB1ADB0003F1A7
:103470003202364BA3FB02235B095B0003F4F873B3
:103480001C44D7F8FC300022C7F8B830C7F8BC207D
:10349000D7E92E8942464B469118B9635B41FB63DD
:1034A000D7E90E2341465118396349464B417B63A6
:1034B0004FF000024FF00003D7E90CAB5946CB00A8
:1034C000514643EA51735146CA0010461946034615
:1034D00042469B18C7F8B0304B460A4642EB0303FE
:1034E000C7F8B430D7F8F4305B680022C7F8A830CA
:1034F000C7F8AC20D7E92A120B46DB18BB6213468B
:1035000042EB0303FB62D7E90A23D7E92C01FCF75E
:1035100077FE02460B460D4BA3FB02135B096421A9
:1035200001FB03F3D31ADB003233084AA2FB032367
:103530005B0903F00702D7F8F4301B6822449A6055
:1035400005E100BF00100140001401401F85EB5150
:10355000D7F8FC300022C7F8A030C7F8A420D7E97C
:10356000288942464B46911839625B417B62D7E914
:10357000082341465418494643EB01054FF0000229
:103580004FF00003EB0043EA5473E20014461D467B
:103590004346E318C7F898304B4645EB0303C7F89A
:1035A0009C30D7F8F4305B680022C7F89030C7F839
:1035B00094204FF000024FF00003D7E9244529463C
:1035C0008B00214643EA917321468A00D7E9260100
:1035D000FCF716FE02460B46604BA3FB02235B0979
:1035E0001C01D7F8FC300022C7F88830C7F88C20BF
:1035F000D7E9228942464B469118B9615B41FB618C
:10360000D7E9062341465118396149464B417B6150
:103610004FF000024FF00003D7E904AB5946CB004E
:10362000514643EA51735146CA00104619460346B3
:1036300042469B18C7F880304B460A4642EB0303CC
:10364000C7F88430D7F8F4305B680022BB67FA67AC
:103650004FF000024FF00003D7E91E8949468B0066
:10366000414643EA917341468A00D7E92001FCF7BD
:10367000C7FD02460B46394BA3FB02135B096421CD
:1036800001FB03F3D31A1B013233344AA2FB032399
:103690005B0903F0F0031C44D7F8FC3000223B67C1
:1036A0007A67D7E91C8942464B469118B9605B415D
:1036B000FB60D7E9022341465118396049464B4126
:1036C0007B604FF000024FF00003D7E900AB594692
:1036D000CB00514643EA51735146CA001046194681
:1036E000034642469B18BB664B460A4642EB030321
:1036F000FB66D7F8F4305B6800223B667A664FF0D1
:1037000000024FF00003D7E9188949468B00414673
:1037100043EA917341468A00D7E91A01FCF770FD2C
:1037200002460B460D4BA3FB02135B09642101FB10
:1037300003F3D31A1B013233084AA2FB03235B09AC
:1037400003F00F02D7F8F4301B6822449A6000BFE0
:1037500007F58077BD46BDE8B08F00BF1F85EB51F0
:1037600080B483B000AF03463960FB7197F907302E
:10377000002B0ADB3B68DAB20C4997F907301201DB
:10378000D2B20B4483F800230AE03B68DAB208495E
:10379000FB7903F00F03043B1201D2B20B441A76FB
:1037A00000BF0C37BD465DF8047B704700E100E0C8
:1037B00000ED00E080B500AF054B1B6801F002FC96
:1037C0000346012B01D002F0E7F900BF80BD00BF26
:1037D00010E000E080B500AF00216FF00400FFF7BB
:1037E000BFFF00BF80BD000080B483B000AFEFF327
:1037F00005833B603B68002B03D06FF005037B60C3
:103800000CE00A4B1B68002B05D1084B01221A6003
:1038100000237B6002E04FF0FF337B607B6818463B
:103820000C37BD465DF8047B704700BF3C0A0020A2
:1038300080B582B000AFEFF305833B603B68002B9F
:1038400003D06FF005037B6010E00B4B1B68012B6E
:1038500009D1FFF7BFFF084B02221A6000F056FFA4
:1038600000237B6002E04FF0FF337B607B681846EB
:103870000837BD4680BD00BF3C0A002080B485B03B
:1038800000AFF860B9607A60FB68074A1A60BB68ED
:10389000064A1A607B6880221A6000BF1437BD4652
:1038A0005DF8047B704700BF400A0020FC0A00203E
:1038B00080B485B000AFF860B9607A60FB68074AF1
:1038C0001A60BB68064A1A607B684FF480721A60FF
:1038D00000BF1437BD465DF8047B7047FC0C002028
:1038E000B80D002080B483B000AF78607B6803F12E
:1038F00008027B685A607B684FF0FF329A607B68F1
:1039000003F108027B68DA607B6803F108027B68D8
:103910001A617B6800221A6000BF0C37BD465DF853
:10392000047B704780B483B000AF78607B6800226E
:103930001A6100BF0C37BD465DF8047B704780B448
:1039400085B000AF786039607B685B68FB603B687E
:10395000FA685A60FB689A683B689A60FB689B68E3
:103960003A685A60FB683A689A603B687A681A61FC
:103970007B681B685A1C7B681A6000BF1437BD4601
:103980005DF8047B704780B485B000AF7860396023
:103990003B681B68BB60BB68B3F1FF3F03D17B682A
:1039A0001B69FB600CE07B680833FB6002E0FB688E
:1039B0005B68FB60FB685B681B68BA689A42F6D27A
:1039C000FB685A683B685A603B685B683A689A6073
:1039D0003B68FA689A60FB683A685A603B687A68A4
:1039E0001A617B681B685A1C7B681A6000BF143719
:1039F000BD465DF8047B704780B485B000AF786049
:103A00007B681B69FB607B685B687A6892689A6078
:103A10007B689B687A6852685A60FB685B687A6862
:103A20009A4203D17B689A68FB685A607B680022DF
:103A30001A61FB681B685A1EFB681A60FB681B68EA
:103A400018461437BD465DF8047B704780B584B0D6
:103A500000AF786039607B68FB60FB68002B0AD19F
:103A60004FF0500383F31188BFF36F8FBFF34F8F75
:103A7000BB6000BFFEE701F0FDFFFB681A68FB6852
:103A8000DB6BF968096C01FB03F31A44FB689A606D
:103A9000FB6800229A63FB681A68FB685A60FB683F
:103AA0001A68FB68DB6B013BF968096C01FB03F3E7
:103AB0001A44FB68DA60FB68FF2283F84420FB6845
:103AC000FF2283F845203B68002B14D1FB681B695B
:103AD000002B1AD0FB681033184601F0B1F80346EA
:103AE000002B12D00C4B4FF080521A60BFF34F8F57
:103AF000BFF36F8F09E0FB6810331846FFF7F2FE43
:103B0000FB6824331846FFF7EDFE01F0E3FF0123C5
:103B100018461037BD4680BD04ED00E080B58EB07C
:103B200002AFF860B9607A603B60FB68002B0AD195
:103B30004FF0500383F31188BFF36F8FBFF34F8FA4
:103B4000BB6200BFFEE73B68002B0AD14FF0500379
:103B500083F31188BFF36F8FBFF34F8F7B6200BF7A
:103B6000FEE77B68002B02D0BB68002B01D001234D
:103B700000E00023002B0AD14FF0500383F311889B
:103B8000BFF36F8FBFF34F8F3B6200BFFEE77B68D1
:103B9000002B02D1BB68002B01D1012300E00023E0
:103BA000002B0AD14FF0500383F31188BFF36F8FBE
:103BB000BFF34F8FFB6100BFFEE750237B617B6942
:103BC000502B0AD04FF0500383F31188BFF36F8F4F
:103BD000BFF34F8FBB6100BFFEE77B693B68FB62B1
:103BE000FB6A002B0DD0FB6A012283F8462097F870
:103BF0003820FB6A009313467A68B968F86800F0C9
:103C000005F8FB6A18463037BD4680BD80B584B0E4
:103C100000AFF860B9607A60FB70BB68002B03D11D
:103C2000BB69BA691A6002E0BB697A681A60BB694D
:103C3000FA68DA63BB69BA681A640121B869FFF7E8
:103C400005FFBB69FA7883F84C2000BF1037BD46EA
:103C500080BD000080B58EB000AFF860B9607A60BA
:103C60003B6000237B63FB683B633B6B002B0AD10B
:103C70004FF0500383F31188BFF36F8FBFF34F8F63
:103C8000BB6200BFFEE7BB68002B03D13B6B1B6C24
:103C9000002B01D1012300E00023002B0AD14FF0BB
:103CA000500383F31188BFF36F8FBFF34F8F7B6295
:103CB00000BFFEE73B68022B03D13B6BDB6B012BA4
:103CC00001D1012300E00023002B0AD14FF0500363
:103CD00083F31188BFF36F8FBFF34F8F3B6200BF39
:103CE000FEE701F06FF90346002B02D17B68002B41
:103CF00001D1012300E00023002B0AD14FF0500333
:103D000083F31188BFF36F8FBFF34F8FFB6100BF49
:103D1000FEE701F0AFFE3B6B9A6B3B6BDB6B9A42AD
:103D200002D33B68022B29D13A68B968386B00F09E
:103D30000BFAF8623B6B5B6A002B10D03B6B2433B1
:103D4000184600F07DFF0346002B13D03F4B4FF089
:103D500080521A60BFF34F8FBFF36F8F0AE0FB6A88
:103D6000002B07D0394B4FF080521A60BFF34F8FB2
:103D7000BFF36F8F01F0AEFE012363E07B68002B81
:103D800003D101F0A7FE00235CE07B6B002B06D182
:103D900007F11403184600F0B7FF01237B6301F01D
:103DA00099FE00F023FD01F065FE3B6B93F8443073
:103DB0005BB2B3F1FF3F03D13B6B002283F8442099
:103DC0003B6B93F845305BB2B3F1FF3F03D13B6BE4
:103DD000002283F8452001F07DFE3A1D07F114030F
:103DE0001146184600F0A6FF0346002B24D1386B7D
:103DF00000F0A2FA0346002B18D03B6B10337A6810
:103E00001146184600F0CCFE386B00F02DFA00F099
:103E1000FBFC0346002B7FF47CAF0C4B4FF0805231
:103E20001A60BFF34F8FBFF36F8F72E7386B00F0EC
:103E30001BFA00F0E9FC6CE7386B00F015FA00F0B3
:103E4000E3FC002318463837BD4680BD04ED00E092
:103E500080B590B000AFF860B9607A603B60FB68F5
:103E6000BB63BB6B002B0AD14FF0500383F3118867
:103E7000BFF36F8FBFF34F8FBB6200BFFEE7BB681E
:103E8000002B03D1BB6B1B6C002B01D1012300E085
:103E90000023002B0AD14FF0500383F31188BFF3A6
:103EA0006F8FBFF34F8F7B6200BFFEE73B68022B33
:103EB00003D1BB6BDB6B012B01D1012300E000239D
:103EC000002B0AD14FF0500383F31188BFF36F8F9B
:103ED000BFF34F8F3B6200BFFEE701F0ADFEEFF393
:103EE00011824FF0500383F31188BFF36F8FBFF33C
:103EF0004F8FFA61BB61FB697B63BB6B9A6BBB6BDA
:103F0000DB6B9A4202D33B68022B2FD1BB6B93F839
:103F1000453087F83330BB6B9B6BFB623A68B968FE
:103F2000B86B00F011F997F93330B3F1FF3F12D1BC
:103F3000BB6B5B6A002B16D0BB6B2433184600F0BA
:103F40007FFE0346002B0ED07B68002B0BD07B68D6
:103F500001221A6007E097F833300133DBB25AB21E
:103F6000BB6B83F845200123FB6301E00023FB6367
:103F70007B6B7B617B6983F3118800BFFB6B184609
:103F80004037BD4680BD000080B58CB000AFF86002
:103F9000B9607A600023FB62FB68BB62BB6A002BDE
:103FA0000AD14FF0500383F31188BFF36F8FBFF333
:103FB0004F8F3B6200BFFEE7BB68002B03D1BB6A9B
:103FC0001B6C002B01D1012300E00023002B0AD140
:103FD0004FF0500383F31188BFF36F8FBFF34F8F00
:103FE000FB6100BFFEE700F0EDFF0346002B02D1AE
:103FF0007B68002B01D1012300E00023002B0AD1B4
:104000004FF0500383F31188BFF36F8FBFF34F8FCF
:10401000BB6100BFFEE701F02DFDBB6A9B6B7B62BD
:104020007B6A002B1FD0B968B86A00F0F7F87B6A8A
:104030005A1EBB6A9A63BB6A1B69002B0FD0BB6A0E
:104040001033184600F0FCFD0346002B07D03D4B13
:104050004FF080521A60BFF34F8FBFF36F8F01F0A4
:1040600039FD012369E07B68002B03D101F032FDAB
:10407000002362E0FB6A002B06D107F1100318460B
:1040800000F042FE0123FB6201F024FD00F0AEFBD4
:1040900001F0F0FCBB6A93F844305BB2B3F1FF3F30
:1040A00003D1BB6A002283F84420BB6A93F84530F1
:1040B0005BB2B3F1FF3F03D1BB6A002283F8452016
:1040C00001F008FD3A1D07F110031146184600F0F3
:1040D00031FE0346002B23D1B86A00F017F90346DE
:1040E000002B17D0BB6A24337A681146184600F0BB
:1040F00057FDB86A00F0B8F800F086FB0346002BC5
:1041000089D1104B4FF080521A60BFF34F8FBFF32D
:104110006F8F80E7B86A00F0A7F800F075FB7AE7C8
:10412000B86A00F0A1F800F06FFBB86A00F0EEF892
:104130000346002B3FF46FAF002318463037BD46CF
:1041400080BD00BF04ED00E080B586B000AFF86030
:10415000B9607A6000237B61FB689B6B3B61FB6805
:104160001B6C002B0DD1FB681B68002B4DD1FB682D
:104170009B68184600F044FF7861FB6800229A6053
:1041800043E07B68002B19D1FB685868FB681B6C07
:104190001A46B96801F072FEFB685A68FB681B6C2E
:1041A0001A44FB685A60FB685A68FB689B689A422D
:1041B0002BD3FB681A68FB685A6026E0FB68D86856
:1041C000FB681B6C1A46B96801F058FEFB68DA6898
:1041D000FB681B6C5B421A44FB68DA60FB68DA68B8
:1041E000FB681B689A4207D2FB689A68FB681B6CE5
:1041F0005B421A44FB68DA607B68022B05D13B699D
:10420000002B02D03B69013B3B613B695A1CFB68B8
:104210009A637B6918461837BD4680BD80B582B069
:1042200000AF786039607B681B6C002B18D07B680E
:10423000DA687B681B6C1A447B68DA607B68DA6832
:104240007B689B689A4203D37B681A687B68DA6054
:104250007B68D9687B681B6C1A46386801F00EFED3
:1042600000BF0837BD4680BD80B584B000AF786020
:1042700001F000FC7B6893F84530FB7311E07B682C
:104280005B6A002B12D07B682433184600F0D8FC00
:104290000346002B01D000F0AFFDFB7B013BDBB2FE
:1042A000FB7397F90F30002BE9DC00E000BF7B685F
:1042B000FF2283F8452001F00DFC01F0DBFB7B6859
:1042C00093F84430BB7311E07B681B69002B12D05C
:1042D0007B681033184600F0B3FC0346002B01D076
:1042E00000F08AFDBB7B013BDBB2BB7397F90E305C
:1042F000002BE9DC00E000BF7B68FF2283F844204C
:1043000001F0E8FB00BF1037BD4680BD80B584B02A
:1043100000AF786001F0AEFB7B689B6B002B02D195
:104320000123FB6001E00023FB6001F0D3FBFB688D
:1043300018461037BD4680BD80B584B000AF7860A8
:1043400001F098FB7B689A6B7B68DB6B9A4202D129
:104350000123FB6001E00023FB6001F0BBFBFB6875
:1043600018461037BD4680BD80B485B000AF786078
:1043700039600023FB6014E00F4AFB6852F83330C9
:10438000002B0BD10C49FB683A6841F833200A4AEC
:10439000FB68DB0013447A685A6006E0FB6801336F
:1043A000FB60FB68072BE7D900BF00BF1437BD4691
:1043B0005DF8047B704700BFB811002080B586B05F
:1043C00000AFF860B9607A60FB687B6101F052FB76
:1043D0007B6993F844305BB2B3F1FF3F03D17B6953
:1043E000002283F844207B6993F845305BB2B3F137
:1043F000FF3F03D17B69002283F8452001F06AFB6F
:104400007B699B6B002B06D17B6924337A68B96882
:10441000184600F0E9FB7869FFF726FF00BF183760
:10442000BD4680BD80B58EB004AFF860B9607A60DB
:104430003B607B6B002B0AD14FF0500383F3118854
:10444000BFF36F8FBFF34F8F3B6200BFFEE7BB6BC5
:10445000002B0AD14FF0500383F31188BFF36F8F05
:10446000BFF34F8FFB6100BFFEE7BC233B613B699D
:10447000BC2B0AD04FF0500383F31188BFF36F8F2A
:10448000BFF34F8FBB6100BFFEE73B69BB6B002BE7
:104490001ED07B6B002B1BD0BB6B7B627B6A7A6B65
:1044A0001A637B6A022283F8B920002303937B6A94
:1044B000029307F1140301933B6B00933B687A6806
:1044C000B968F86800F00CF8786A00F0AFF801E01D
:1044D00000237B617B6918462837BD4680BD0000FC
:1044E00080B588B000AFF860B9607A603B603B6B24
:1044F000186B7B689B001A46A52101F0CDFC3B6B35
:104500001A6B7B6803F18043013B9B001344BB6142
:10451000BB6923F00703BB61BB6903F00703002BF2
:104520000AD04FF0500383F31188BFF36F8FBFF3AE
:104530004F8F7B6100BFFEE7BB68002B1FD00023BD
:10454000FB6112E0BA68FB69134419783A6BFB69A6
:10455000134434330A461A70BA68FB6913441B7853
:10456000002B06D0FB690133FB61FB690F2BE9D9F6
:1045700000E000BF3B6B002283F8432003E03B6B6D
:10458000002283F83420BB6A372B01D93723BB6262
:104590003B6BBA6ADA623B6BBA6ADA643B6B002245
:1045A0001A653B6B04331846FFF7BCF93B6B1833B5
:1045B0001846FFF7B7F93B6B3A6B1A61BB6AC3F158
:1045C00038023B6B9A613B6B3A6B5A623B6B002241
:1045D000C3F8B4203B6B002283F8B8203B6B543304
:1045E00060220021184601F057FC3B6B0C4A9A658B
:1045F0003B6B0C4ADA653B6B0B4A1A663A68F96802
:10460000B86901F00DF902463B6B1A60FB6A002B9A
:1046100002D0FB6A3A6B1A6000BF2037BD4680BDEE
:10462000BC600008DC6000089C60000880B582B0B7
:1046300000AF786001F01EFA2D4B1B6801332C4A45
:1046400013602C4B1B68002B09D12A4A7B6813602E
:10465000274B1B68012B10D100F0F2FB0DE0264B1D
:104660001B68002B09D1234B1B68DA6A7B68DB6A65
:104670009A4202D81F4A7B681360204B1B680133A3
:104680001E4A13601D4B1A687B685A647B68DA6A9D
:104690001B4B1B689A4203D97B68DB6A184A13607C
:1046A0007B68DA6A13469B0013449B00154A1A4440
:1046B0007B68043319461046FFF741F901F00AFA06
:1046C0000D4B1B68002B0ED00A4B1B68DA6A7B6807
:1046D000DB6A9A4207D20C4B4FF080521A60BFF34C
:1046E0004F8FBFF36F8F00BF0837BD4680BD00BF3F
:1046F000CC160020F8110020D8160020E816002063
:10470000D4160020FC11002004ED00E080B58AB032
:1047100004AF0023BB6000237B603A46391D07F1DC
:1047200008031846FFF7AAF839687B68BA6802924E
:1047300001930023009300230A4624492448FFF7ED
:1047400071FE0346234A1360224B1B68002B02D0E4
:1047500001237B6101E000237B617B69012B02D196
:1047600000F010FD78617B69012B1BD14FF05003E5
:1047700083F31188BFF36F8FBFF34F8F3B6100BF8F
:10478000154B1B685433154A1360154B4FF0FF321D
:104790001A60144B01221A60134B00221A6001F0B8
:1047A000C7F80EE07B69B3F1FF3F0AD14FF0500329
:1047B00083F31188BFF36F8FBFF34F8FFB6000BF90
:1047C000FEE700BF1837BD4680BD00BF6C60000823
:1047D000114E0008F0160020F811002034000020CF
:1047E000EC160020D8160020D016002080B400AFB0
:1047F000044B1B680133034A136000BFBD465DF8DC
:10480000047B7047F416002080B584B000AF00230D
:10481000FB600023BB60424B1B68002B0AD14FF0AA
:10482000500383F31188BFF36F8FBFF34F8F3B604B
:1048300000BFFEE701F01EF9394B1B68013B384A07
:104840001360374B1B68002B62D1364B1B68002B63
:104850005ED02FE0344BDB68DB68FB60FB6818330D
:104860001846FFF7C9F8FB6804331846FFF7C4F889
:10487000FB68DA6A2D4B1B689A4203D9FB68DB6A36
:104880002A4A1360FB68DA6A13469B0013449B00B4
:10489000274A1A44FB68043319461046FFF74FF8BD
:1048A000FB68DA6A234B1B68DB6A9A4202D3224B0D
:1048B00001221A601C4B1B68002BCBD1FB68002B1C
:1048C00001D000F05FFB1D4B1B687B607B68002BF9
:1048D00010D000F047F80346002B02D0164B0122FF
:1048E0001A607B68013B7B607B68002BF1D1134B26
:1048F00000221A60104B1B68002B09D00123BB60FB
:104900000F4B4FF080521A60BFF34F8FBFF36F8F82
:1049100001F0E0F8BB6818461037BD4680BD00BF07
:10492000F4160020CC1600208C160020D41600208F
:10493000FC110020F8110020E0160020DC160020F9
:1049400004ED00E080B483B000AF054B1B687B60D2
:104950007B6818460C37BD465DF8047B704700BF86
:10496000D016002080B586B000AF00237B614F4B8E
:104970001B68002B40F08F804D4B1B6801333B615F
:104980004B4A3B6913603B69002B20D1494B1B68A4
:104990001B68002B0AD04FF0500383F31188BFF33C
:1049A0006F8FBFF34F8F3B6000BFFEE7414B1B682B
:1049B000FB60414B1B683F4A13603F4AFB68136032
:1049C0003E4B1B6801333D4A136000F0DBFA3C4B61
:1049D0001B683A699A4249D3364B1B681B68002B07
:1049E00004D1374B4FF0FF321A603FE0314B1B6868
:1049F000DB68DB68BB60BB685B687B603A697B68CF
:104A00009A4203D22E4A7B6813602FE0BB680433BE
:104A10001846FEF7F1FFBB689B6A002B04D0BB6809
:104A200018331846FEF7E8FFBB68DA6A254B1B68A7
:104A30009A4203D9BB68DB6A224A1360BB68DA6A10
:104A400013469B0013449B001F4A1A44BB6804335F
:104A500019461046FEF773FFBB68DA6A1B4B1B68EA
:104A6000DB6A9A42B8D301237B61B5E7174B1B6819
:104A7000DA6A154913469B0013449B000B441B68DC
:104A8000012B01D901237B61114B1B68002B07D03F
:104A900001237B6104E00F4B1B6801330D4A136057
:104AA0007B6918461837BD4680BD00BFF41600204C
:104AB000D01600208416002088160020E41600205E
:104AC000EC160020D4160020FC110020F811002064
:104AD000E0160020DC16002080B485B000AF2A4B21
:104AE0001B68002B03D0294B01221A6046E0274B9C
:104AF00000221A60264B1B68FB6010E0FB68002B4D
:104B00000AD14FF0500383F31188BFF36F8FBFF3C7
:104B10004F8F7B6000BFFEE7FB68013BFB601D49D8
:104B2000FA6813469B0013449B000B441B68002B40
:104B3000E4D0FA6813469B0013449B00154A1344C3
:104B4000BB60BB685B685A68BB685A60BB685A68E0
:104B5000BB6808339A4204D1BB685B685A68BB687B
:104B60005A60BB685B68DB680B4A1360084AFB68E5
:104B70001360094B1B685433084A136000BF143795
:104B8000BD465DF8047B7047F4160020E016002057
:104B9000D4160020FC110020F81100203400002061
:104BA00080B584B000AF786039607B68002B0AD193
:104BB0004FF0500383F31188BFF36F8FBFF34F8F14
:104BC000FB6000BFFEE7074B1B6818331946786887
:104BD000FEF7D9FE0121386800F080FA00BF1037D7
:104BE000BD4680BDF811002080B586B000AFF860EA
:104BF000B9607A60FB68002B0AD14FF0500383F351
:104C00001188BFF36F8FBFF34F8F7B6100BFFEE74B
:104C10000A4B1B6818331946F868FEF790FE7B684C
:104C2000002B02D04FF0FF33BB607968B86800F00A
:104C300055FA00BF1837BD4680BD00BFF8110020EF
:104C400080B586B000AF78607B68DB68DB683B616D
:104C50003B69002B0AD14FF0500383F31188BFF357
:104C60006F8FBFF34F8FFB6000BFFEE73B691833C8
:104C70001846FEF7C1FE1E4B1B68002B1DD13B6979
:104C800004331846FEF7B8FE3B69DA6A194B1B6815
:104C90009A4203D93B69DB6A164A13603B69DA6AB8
:104CA00013469B0013449B00134A1A443B69043388
:104CB00019461046FEF743FE05E03B6918331946D6
:104CC0000E48FEF73CFE3B69DA6A0D4B1B68DB6A57
:104CD0009A4205D901237B610A4B01221A6001E047
:104CE00000237B617B6918461837BD4680BD00BF35
:104CF000F4160020D4160020FC1100208C16002091
:104D0000F8110020E016002080B483B000AF786076
:104D1000064B1A687B681A60054B1A687B685A60F4
:104D200000BF0C37BD465DF8047B7047E4160020D9
:104D3000D016002080B588B000AF786039607B68FD
:104D4000002B0AD14FF0500383F31188BFF36F8F0C
:104D5000BFF34F8F3B6100BFFEE73B68002B0AD1DA
:104D60004FF0500383F31188BFF36F8FBFF34F8F62
:104D7000FB6000BFFEE700F07DFE1D4B1B68BB61C2
:104D80007B685B68BA69D31A7B613B681B68B3F1C7
:104D9000FF3F02D10023FB6123E07B681A68154BBB
:104DA0001B689A4207D07B685B68BA699A4202D353
:104DB0000123FB6115E03B681B687A699A420BD2BC
:104DC0003B681A687B69D21A3B681A607868FFF7FB
:104DD0009BFF0023FB6104E03B6800221A60012373
:104DE000FB6100F077FEFB6918462037BD4680BDA9
:104DF000D0160020E416002080B400AF034B01223F
:104E00001A6000BFBD465DF8047B7047E0160020C5
:104E100080B582B000AF786000F052F8064B1B6896
:104E2000012BF9D9054B4FF080521A60BFF34F8F19
:104E3000BFF36F8FF0E700BFFC11002004ED00E02E
:104E400080B582B000AF00237B600CE07A68134627
:104E50009B0013449B00124A13441846FEF742FD80
:104E60007B6801337B607B68372BEFD90D48FEF7F9
:104E700039FD0D48FEF736FD0C48FEF733FD0C48B2
:104E8000FEF730FD0B48FEF72DFD0B4B054A1A606F
:104E90000A4B054A1A6000BF0837BD4680BD00BFF7
:104EA000FC1100205C160020701600208C160020DB
:104EB000A0160020B81600208416002088160020B6
:104EC00080B582B000AF19E000F0D4FD104BDB6874
:104ED000DB687B607B6804331846FEF78DFD0D4B65
:104EE0001B68013B0B4A13600B4B1B68013B0A4AD2
:104EF000136000F0EFFD786800F010F8064B1B68B7
:104F0000002BE1D100BF00BF0837BD4680BD00BF08
:104F1000A0160020CC160020B416002080B584B066
:104F200000AF78607B685433184600F0CBFF7B6895
:104F300093F8B930002B08D17B681B6B184600F042
:104F4000BBFE786800F0B8FE18E07B6893F8B930D3
:104F5000012B03D1786800F0AFFE0FE07B6893F877
:104F6000B930022B0AD04FF0500383F31188BFF3FE
:104F70006F8FBFF34F8FFB6000BFFEE700BF10379E
:104F8000BD4680BD80B483B000AF0C4B1B681B686E
:104F9000002B04D10A4B4FF0FF321A6008E0074B98
:104FA0001B68DB68DB687B607B685B68044A1360B6
:104FB00000BF0C37BD465DF8047B704784160020A7
:104FC000EC16002080B483B000AF0B4B1B68002BA5
:104FD00002D101237B6008E0084B1B68002B02D143
:104FE00002237B6001E000237B607B6818460C375E
:104FF000BD465DF8047B7047D8160020F4160020EB
:1050000080B586B000AF78607B683B6100237B6130
:105010007B68002B56D02E4B1B683A699A420AD007
:105020004FF0500383F31188BFF36F8FBFF34F8F9F
:10503000FB6000BFFEE73B691B6D002B0AD14FF000
:10504000500383F31188BFF36F8FBFF34F8FBB60A3
:1050500000BFFEE73B691B6D5A1E3B691A653B6941
:10506000DA6A3B69DB6C9A422CD03B691B6D002BE2
:1050700028D13B6904331846FEF7BEFC3B69DA6C65
:105080003B69DA623B69DB6AC3F138023B699A61CA
:105090003B69DA6A0F4B1B689A4203D93B69DB6AAA
:1050A0000C4A13603B69DA6A13469B0013449B0069
:1050B000094A1A443B69043319461046FEF73FFC7F
:1050C00001237B617B6918461837BD4680BD00BF50
:1050D000F8110020D4160020FC11002080B584B007
:1050E00000AF78603960214B1B68FB60204B1B6868
:1050F00004331846FEF780FC7B68B3F1FF3F0AD10A
:105100003B68002B07D01A4B1B680433194619481B
:10511000FEF715FC26E0FA687B681344BB60144B6D
:105120001B68BA685A60BA68FB689A4209D2124B87
:105130001A680F4B1B68043319461046FEF723FC10
:1051400010E00E4B1A680A4B1B68043319461046D0
:10515000FEF719FC0A4B1B68BA689A4202D2084A49
:10516000BB68136000BF1037BD4680BDD01600205D
:10517000F8110020B81600208816002084160020A0
:10518000EC16002080B58AB004AF00237B6100F0EC
:1051900007FB1C4B1B68002B21D00023FB60002366
:1051A000BB603A1D07F1080107F10C031846FEF732
:1051B0007FFB7968BB68FA6802920193022300932F
:1051C00000230A4610491148FFF72CF90346104AFC
:1051D00013600F4B1B68002B01D001237B617B699F
:1051E000002B0AD14FF0500383F31188BFF36F8F68
:1051F000BFF34F8F3B6100BFFEE77B69184618374E
:10520000BD4680BD2817002074600008495300087F
:105210002C17002080B58AB000AFF860B9607A60C2
:105220003B6000237B62FB68002B0AD14FF05003E8
:1052300083F31188BFF36F8FBFF34F8F3B6200BFC3
:10524000FEE71A4B1B68002B2AD0BB683B617B68CA
:105250007B61FB68BB61BB68052B18DCFFF7B2FE06
:105260000346022B09D1114B186807F110010023E6
:105270003A6BFEF7EFFC786212E00C4B186807F10E
:10528000100100230022FEF7E5FC786208E0074BDE
:10529000186807F1100100233A68FEF7D9FD78621B
:1052A0007B6A18462837BD4680BD00BF28170020FE
:1052B00080B588B002AF78603960224B1B68DB682C
:1052C000DB687B617B6904331846FEF795FB7B69DD
:1052D00093F8283003F00403002B22D07B699A69ED
:1052E0007B68D1187B683A68786900F0D1F803468A
:1052F000002B1FD00023009300237A6800217869D7
:10530000FFF788FF38613B69002B13D14FF0500342
:1053100083F31188BFF36F8FBFF34F8FFB6000BF24
:10532000FEE77B6993F8283023F00103DAB27B694A
:1053300083F828207B691B6A7869984700BF183773
:10534000BD4680BD2017002080B584B000AF7860D6
:1053500007F10803184600F057F8F860BB681946D3
:10536000F86800F003F800F0D5F8F1E780B584B0F4
:1053700000AF78603960FFF739FA07F10803184683
:1053800000F066F8F860BB68002B30D13B68002B5A
:105390000AD17A68FB689A4206D8FFF735FAF968AD
:1053A0007868FFF785FF24E03B68002B08D0134B9B
:1053B0001B681B68002B01D1012300E000233B6028
:1053C0000F4B18687A68FB68D31A3A681946FEF7DB
:1053D000F5FFFFF719FA0346002B0AD1094B4FF0EE
:1053E00080521A60BFF34F8FBFF36F8F01E0FFF75A
:1053F0000BFA00BF1037BD4680BD00BF2417002048
:105400002817002004ED00E080B485B000AF78607C
:105410000E4B1B681B68002B01D1012200E000220B
:105420007B681A607B681B68002B05D1074B1B68E3
:10543000DB681B68FB6001E00023FB60FB6818462B
:105440001437BD465DF8047B704700BF201700206D
:1054500080B584B000AF7860FFF774FAF8600B4B4A
:105460001B68FA689A4205D200F036F97B6801227F
:105470001A6002E07B6800221A60044AFB6813602D
:10548000FB6818461037BD4680BD00BF30170020AE
:1054900080B586B000AFF860B9607A603B600023E9
:1054A0007B61FB68BA685A60FB68FA681A61BA687F
:1054B0007B689A4212D87A683B68D21AFB689B696B
:1054C0009A4202D301237B611BE0104B1A68FB68F0
:1054D000043319461046FEF756FA12E07A683B6824
:1054E0009A4206D2BA683B689A4202D301237B6192
:1054F00007E0074B1A68FB68043319461046FEF7AD
:1055000042FA7B6918461837BD4680BD2417002033
:105510002017002080B58EB002AFCAE07B68002B58
:1055200018DA3B1D0433FB62FB6A002B0AD14FF0F3
:10553000500383F31188BFF36F8FBFF34F8FFB616D
:1055400000BFFEE7FB6A1B68FA6A5068FA6A926855
:10555000114698477B68002BC0F2AA80FB68BB62AB
:10556000BB6A5B69002B04D0BB6A04331846FEF7A4
:1055700043FA3B461846FFF76BFF78627B68092BBE
:1055800000F2978001A252F823F000BFB555000841
:10559000B5550008B5550008295600083D560008C5
:1055A00087560008B5550008B5550008295600086B
:1055B0003D560008BB6A93F8283043F00103DAB285
:1055C000BB6A83F82820BA68BB6A9B69D118BB689C
:1055D0007A6AB86AFFF75CFF0346002B69D0BB6AA2
:1055E0001B6AB86A9847BB6A93F8283003F0040333
:1055F000002B5ED0BA68BB6A9B691A4400230093F3
:1056000000230021B86AFFF705FE38623B6A002BD1
:105610004FD14FF0500383F31188BFF36F8FBFF367
:105620004F8FBB6100BFFEE7BB6A93F8283023F0C1
:105630000103DAB2BB6A83F828203AE0BB6A93F828
:10564000283043F00103DAB2BB6A83F82820BA6835
:10565000BB6A9A61BB6A9B69002B0AD14FF0500369
:1056600083F31188BFF36F8FBFF34F8F7B6100BF50
:10567000FEE7BB6A9A697B6AD1187B6A7A6AB86A64
:10568000FFF706FF15E0BB6A93F8283003F002032A
:10569000002B03D1B86A00F00FFB0AE0BB6A93F855
:1056A000283023F00103DAB2BB6A83F8282000E037
:1056B00000BF084B1B68391D00221846FEF764FC2A
:1056C0000346002B7FF42AAF00BF00BF3037BD4632
:1056D00080BD00BF2817002080B588B002AF48E029
:1056E0002D4B1B68DB681B683B612B4B1B68DB6821
:1056F000DB68FB60FB6804331846FEF77DF9FB6846
:105700001B6AF8689847FB6893F8283003F0040395
:10571000002B2ED0FB689B693A691344BB60BA68C2
:105720003B699A420ED9FB68BA685A60FB68FA680E
:105730001A61194B1A68FB68043319461046FEF7C4
:1057400022F916E00023009300233A690021F8684B
:10575000FFF760FD78607B68002B0AD14FF05003A3
:1057600083F31188BFF36F8FBFF34F8F3B6000BF90
:10577000FEE7094B1B681B68002BB1D1064B1B6869
:105780007B61064B1B68044A1360044A7B69136003
:1057900000BF1837BD4680BD201700202417002009
:1057A00080B582B002AF00F065F9154B1B68002B85
:1057B00020D11448FEF796F81348FEF793F8134BE0
:1057C000104A1A60124B104A1A6000230093114BC2
:1057D000114A10210A20FEF7A1F90346084A136076
:1057E000074B1B68002B05D0054B1B680B4918465F
:1057F000FEF7BAFD00F06EF900BFBD4680BD00BFE8
:1058000028170020F81600200C1700202017002071
:1058100024170020D4170020341700207C600008D3
:1058200080B485B000AFF860B9607A60FB68043B73
:10583000FB60FB684FF080721A60FB68043BFB6002
:10584000BB6823F00102FB681A60FB68043BFB6045
:105850000C4AFB681A60FB68143BFB607A68FB68C3
:105860001A60FB68043BFB60FB686FF002021A6081
:10587000FB68203BFB60FB6818461437BD465DF8AB
:10588000047B70478958000880B485B000AF0023BE
:105890007B60124B1B68B3F1FF3F0AD04FF05003FF
:1058A00083F31188BFF36F8FBFF34F8FFB6000BF8F
:1058B000FEE74FF0500383F31188BFF36F8FBFF300
:1058C0004F8FBB6000BF00BF7B68002BFCD000BFC8
:1058D00000BF1437BD465DF8047B704730000020E0
:1058E000074B19680868B0E8F04F80F30988BFF3E8
:1058F0006F8F4FF0000080F311887047AFF3008086
:10590000F811002000BF00BF08480068006880F35D
:1059100008884FF0000080F3148862B661B6BFF3C8
:105920004F8FBFF36F8F00DF00BF00BF08ED00E0B7
:1059300080B586B000AF464B1B68464A93420AD1F9
:105940004FF0500383F31188BFF36F8FBFF34F8F76
:105950003B6100BFFEE73E4B1B683F4A93420AD1C2
:105960004FF0500383F31188BFF36F8FBFF34F8F56
:10597000FB6000BFFEE7394B7B617B691B78DBB2C4
:105980007B607B69FF221A707B691B78DBB2FB703E
:10599000FB78DBB203F05003DAB2314B1A70314BB3
:1059A00007221A6009E02F4B1B68013B2D4A136048
:1059B000FB78DBB25B00DBB2FB70FB78DBB203F0A1
:1059C0008003802BEFD0274B1B68C3F10703042B08
:1059D0000AD04FF0500383F31188BFF36F8FBFF3EA
:1059E0004F8FBB6000BFFEE71E4B1B681B021D4AAA
:1059F00013601C4B1B6803F4E0631A4A13607B6856
:105A0000DAB27B691A70184B1B68174A43F47003AB
:105A10001360154B1B68144A43F07043136000F089
:105A2000DDF8124B00221A6000F0FCF8104B1B68E6
:105A30000F4A43F040431360FFF766FFFFF74CF84F
:105A4000FFF722FF002318461837BD4680BD00BF70
:105A500000ED00E071C20F4170C20F4100E400E0B0
:105A6000241800202818002020ED00E0300000203D
:105A700034EF00E080B483B000AF4FF0500383F305
:105A80001188BFF36F8FBFF34F8F7B6000BF0F4B49
:105A90001B6801330D4A13600C4B1B68012B0FD19F
:105AA0000B4B1B68DBB2002B0AD04FF0500383F383
:105AB0001188BFF36F8FBFF34F8F3B6000BFFEE7CE
:105AC00000BF0C37BD465DF8047B704730000020F6
:105AD00004ED00E080B483B000AF124B1B68002BD4
